:020000040800F2
:10000000000008203D560008890C00088B0C0008F1
:100010008D0C00088F0C0008910C000800000000F7
:10002000000000000000000000000000B14E0008C9
:10003000930C000800000000514F0008B54F000865
:100040008D5600088D5600088D5600088D56000804
:100050008D5600088D5600088D5600088D560008F4
:100060008D5600088D5600088D5600088D560008E4
:10007000950C00088D560008A50C00088D56000848
:100080008D5600088D5600088D5600088D560008C4
:100090008D5600088D5600088D5600088D560008B4
:1000A0008D560008B50C00088D5600088D560008C6
:1000B0008D5600088D5600088D5600088D56000894
:1000C0008D5600088D5600088D5600088D56000884
:1000D0008D5600088D5600088D560008C50C000886
:1000E0008D5600088D5600088D5600088D56000864
:1000F0008D5600088D5600088D5600088D56000854
:100100008D5600088D5600088D5600088D56000843
:100110008D5600088D5600088D5600088D56000833
:100120008D5600088D5600088D5600088D56000823
:100130008D5600088D5600088D5600088D56000813
:100140008D5600088D5600088D5600088D56000803
:100150008D5600088D5600088D5600088D560008F3
:100160008D5600088D5600088D5600088D560008E3
:100170008D5600088D5600088D56000800000000BE
:100180008D5600088D5600088D5600088D560008C3
:100190008D5600088D5600088D5600088D560008B3
:1001A0008D5600088D5600088D5600088D560008A3
:1001B0008D5600088D5600088D5600088D56000893
:1001C0008D5600088D560008000000008D5600086E
:1001D0008D5600088D5600088D5600088D56000873
:1001E0008D5600088D5600088D5600088D56000863
:0801F0008D5600088D56000831
:1002000010B5054C237833B9044B13B10448AFF350
:1002100000800123237010BD380200200000000080
:100220005400010808B5034B1BB103490348AFF361
:10023000008008BD000000003C02002054000108BE
:1002400001F0FF01102A2BDB10F0070F08D010F887
:10025000013B013A8B422DD010F0070F42B3F6D18B
:10026000F0B441EA012141EA014122F007047FF0A4
:1002700000070023F0E80256083C85EA010586EAFB
:10028000010685FA47F5A3FA87F586FA47F6A5FA37
:1002900087F68EB9EED1F0BC01F0FF0102F0070243
:1002A00032B110F8013B013A83EA010313B1F8D1EE
:1002B0000020704701387047002D06BF35460338CF
:1002C000073815F0010F07D1013015F4807F02BF08
:1002D000013015F4C03F0130F0BC0138704700BF59
:1002E0007BB972B90029BEBF00204FF0004106E083
:1002F00008BF00281CBF6FF000414FF0FF3000F036
:10030000BBB9ADF1080C6DE904CE002909DB002B67
:100310001ADB00F04DF8DDF804E0DDE9022304B05B
:100320007047404261EB4101002B1BDB00F040F8BD
:10033000DDF804E0DDE9022304B0404261EB410155
:10034000524263EB43037047524263EB430300F0B6
:100350002FF8DDF804E0DDE9022304B0404261EB50
:1003600041017047524263EB430300F021F8DDF88E
:1003700004E0DDE9022304B0524263EB430370471B
:1003800053B94AB9002908BF00281CBF4FF0FF31FC
:100390004FF0FF3000F070B9ADF1080C6DE904CEFC
:1003A00000F006F8DDF804E0DDE9022304B0704750
:1003B0002DE9F047089E0D4604460F46002B4AD112
:1003C0008A42944665D9B2FA82F343B102FA03FC39
:1003D000C3F120029F4020FA02F217439C404FEAEB
:1003E0001C4E1FFA8CF5B7FBFEF1220C0EFB1177A9
:1003F00042EA074201FB05F090420AD91CEB0202D7
:1004000001F1FF3780F01C81904240F219810239DE
:100410006244121AA4B2B2FBFEF00EFB102244EAB0
:10042000024400FB05F5A5420AD91CEB040400F1C7
:10043000FF3280F00781A54240F204816444023813
:1004400040EA0140641B00211EB1DC400023C6E9E4
:100450000043BDE8F0878B4208D9002E00F0ED8004
:100460000021C6E900050846BDE8F087B3FA83F12C
:10047000002949D1AB4202D3824200F2F880841AAB
:1004800065EB030201201746002EE2D0C6E90047C3
:10049000DFE702B9FFDEB2FA82F3002B40F0908072
:1004A0008A1A4FEA1C471FFA8CFE0121B2FBF7F5AE
:1004B00007FB1520220C42EA00420EFB05F0904299
:1004C00008D91CEB020205F1FF3802D2904200F27B
:1004D000CB804546121AA4B2B2FBF7F007FB1022FC
:1004E00044EA02440EFB00FEA64508D91CEB0404B6
:1004F00000F1FF3202D2A64500F2BB801046A4EB09
:100500000E0440EA05409FE7C1F120078B4022FA24
:1005100007FC4CEA030C05FA01F420FA07F3FD404E
:100520004FEA1C492343B5FBF9F81FFA8CFE09FB7F
:1005300018551C0C44EA054408FB0EF5A54202FAC6
:1005400001F200FA01F00BD91CEB040408F1FF3AA8
:1005500080F08880A54240F28580A8F102086444BA
:10056000641B9DB2B4FBF9F309FB134445EA044450
:1005700003FB0EFEA64508D91CEB040403F1FF356E
:100580006CD2A6456AD9023B644443EA0843A3FB04
:100590000295A4EB0E04AC42C846AE4656D353D0E7
:1005A00056B1B0EB080264EB0E0404FA07F7CA4038
:1005B000CC401743C6E9007418460021BDE8F08717
:1005C000C3F1200102FA03FC20FA01F225FA01F13D
:1005D0009D402A434FEA1C471FFA8CFEB1FBF7F0FF
:1005E00007FB1015110C41EA054100FB0EF58D4289
:1005F00004FA03F408D91CEB010100F1FF382FD2F3
:100600008D422DD902386144491B92B2B1FBF7F5F6
:1006100007FB151142EA014205FB0EF1914208D990
:100620001CEB020205F1FF3816D2914214D9023DAB
:100630006244521A45EA004138E73146304608E73D
:100640003946E6E61046FBE64845A9D2B9EB020872
:1006500065EB0C0E013BA3E74546EAE72B4694E722
:100660004046D1E7D0467BE7023D624432E7084688
:100670000AE76444023842E7704700BF10F8012BD4
:1006800011F8013B012A28BF9A42F7D0D01A7047CF
:10069000034613F8012B002AFBD1181A01387047C2
:1006A00008B50268034B9A4200D008BD01F0DCFD9A
:1006B000FBE700BF0000014072B6FEE700B595B051
:1006C0003422002107A805F0FAF8002302930393CF
:1006D000049305930693214B1A6C42F080521A64DE
:1006E0001B6C03F080530093009B1D4B1A6842F46F
:1006F00040421A601B6803F440430193019B0123AD
:1007000007934FF48033089302230D934FF4800234
:100710000E9208220F924FF4B4721092119312931A
:10072000139307A800F096FB98B90F2302930223B6
:100730000393002304934FF4A05305934FF4805385
:100740000693052102A800F015FE20B915B05DF84A
:1007500004FBFFF7B1FFFFF7AFFF00BF0038024017
:100760000070004008B501F073FDFFF7A7FF00F02F
:100770000BF800F059F900F079F904F03FF900F0B6
:1007800043F904F059F9FEE72DE9F04F8DB000244C
:100790000794089409940A940B945D4B1A6B42F0E9
:1007A00004021A631A6B02F004020192019A1A6B96
:1007B00042F080021A631A6B02F080020292029ADF
:1007C0001A6B42F001021A631A6B02F001020392E3
:1007D000039A1A6B42F002021A631A6B02F00202C9
:1007E0000492049A1A6B42F008021A631A6B02F020
:1007F00008020592059A1A6B42F040021A631B6BBD
:1008000003F040030693069BDFF80CA1224644F256
:100810008101504601F0AAFA3E4F22464021384657
:1008200001F0A4FA4FF4005BCDF81CB04FF488132C
:1008300008930994DFF8E49007A9484601F094F979
:100840003223079302260896099403250A954FF050
:100850000B08CDF82C8007A9484601F085F98623BE
:100860000793089609940A95CDF82C80A9F500699C
:1008700007A9484601F078F944F281030793012360
:10088000089309940A9407A9504601F06DF9CDF830
:100890001CB0089609940A95CDF82C8007A95046FB
:1008A00001F062F9402307930123089309940A9405
:1008B00007A9384601F058F9802307930894099452
:1008C00007A9384601F050F94FF4E853079308960A
:1008D00009940A950A230B9307A9484601F044F9A5
:1008E0004FF4007307930894099407A9484601F050
:1008F0003BF94FF420530793089609940A95CDF8D5
:100900002C8007A9384601F02FF90DB0BDE8F08F13
:100910000038024000180240000402400008024073
:100920007047000000B5D1B0294B0193294B0093CB
:10093000294B2A4A2A49012007F0D6FB4BA807F089
:100940000DFB284B4B93284B4C93284B4D93284B36
:100950004E934BA807F010FB002833D002A807F0F5
:1009600029FB0DF15C0E0DF1080CBCE80F00AEE8A0
:100970000F00DCF80030CEF8003017AB0022114633
:100980000AA807F01DFA0AAB1A4A1B4908A807F083
:1009900061FA05F06BFE0246184B08A94AA807F059
:1009A0009BFA17AB01220AA91CA807F02DF9002316
:1009B0000093134B3EAA4AA91CA807F0A1F951B015
:1009C0005DF804FBB9210F4804F024FFC6E700BF1F
:1009D000C55500088F550008815500086955000865
:1009E0007C330020015400082154000841540008C1
:1009F0008154000804070108A4000108B40001089C
:100A0000210900087C00010808B5044A00210448B7
:100A100004F036F8034B186008BD00BFC800010899
:100A200025090008B832002000B583B00E4B1A6BC0
:100A300042F400121A631B6B03F400130193019B31
:100A4000002205210C2000F0C1F90C2000F0F4F97F
:100A5000002205210E2000F0B9F90E2000F0ECF97B
:100A600003B05DF804FB00BF0038024008B50B4836
:100A70000B4B03604FF4E133436000238360C3609A
:100A800003610C2242618361C3610362436202F02D
:100A90008EFB00B908BDFFF70FFEFBE77C3300209B
:100AA0000048004030B5ADB00446002127912891A0
:100AB00029912A912B91902203A804F000FF22682B
:100AC0003A4B9A4201D02DB030BD4FF4807303935E
:100AD00003A800F049FD00285ED1354B1A6C42F4A2
:100AE00080221A641A6C02F480220192019A1A6B15
:100AF00042F008021A631B6B03F008030293029B87
:100B00004FF440732793022328930025299503234C
:100B10002A9307232B9327A9264801F025F8264876
:100B2000264B03604FF0006343608560C5604FF45F
:100B300080630361456185614FF48073C3614FF445
:100B400040330362456201F095F940BB1A4B63677D
:100B50009C631B481B4B03604FF0006343604023C2
:100B600083600023C3604FF480620261436183614C
:100B7000C3614FF440320262436201F07BF988B9ED
:100B80000F4B23679C6300220521272000F01EF9EC
:100B9000272000F051F996E7FFF78EFD9DE7FFF75C
:100BA0008BFDD3E7FFF788FDEAE700BF0048004070
:100BB00000380240000C0240BC3200202860024095
:100BC0001C330020586002400120704708B504F033
:100BD0001BFF162303604FF0FF3008BD08B54FF030
:100BE000FF31FFF7F3FFFEE770B50C461646002510
:100BF00006E0AFF30080214601F8010B01350C46F9
:100C0000B542F6DB304670BD70B50C461646002581
:100C100004E014F8010BAFF300800135B542F8DBB6
:100C2000304670BD08B503460D4A12685AB10C4AE9
:100C3000106803440B4A11780B4A521A934206D8A3
:100C4000074A136008BD064A08491160EFE700BE75
:100C500004F0DAFE0C2303604FF0FF30F2E700BF30
:100C6000083400200004000000000820701001205B
:100C70004FF0FF3070474FF400534B600020704737
:100C80000120704700207047FEE7FEE7FEE7FEE721
:100C9000FEE7704708B5024801F0EAF908BD00BF59
:100CA000BC32002008B5024801F0E2F908BD00BFDF
:100CB0001C33002008B5024801F036FB08BD00BF18
:100CC0000C34002008B5024801F05AFE08BD00BFF0
:100CD0007C33002000B583B00D4B1A6C42F080527B
:100CE0001A641A6C02F080520092009A5A6C42F414
:100CF00080425A645B6C03F480430193019B0022A1
:100D00000F216FF0010000F061F803B05DF804FB03
:100D10000038024030B589B004461E4B5A6C42F090
:100D200001025A645B6C03F001030193019B02A969
:100D300003A800F0FBFB00F0E9FB4300164AA2FB0E
:100D400003239B0C013B1548154A026040F2E73231
:100D5000C2604360002303618360836101F03AFC59
:100D6000054610B1284609B030BD0C4801F090FA94
:100D700005460028F6D1192000F05EF80F2C01D9A5
:100D80000125EFE700222146192000F01FF8054B4E
:100D90001C60E7E70038024083DE1B430C34002070
:100DA00000000140080000200649CB6823F4E063FE
:100DB0001B041B0C000200F4E0600343024A1A43C8
:100DC000CA60704700ED00E00000FA0500B5174B5F
:100DD000DB68C3F30223C3F1070CBCF1040F28BF87
:100DE0004FF0040C03F1040EBEF1060F14D9033BBF
:100DF0004FF0FF3E0EFA0CFC21EA0C0199400EFA6E
:100E000003FE22EA0E020A43002807DB1201D2B2D7
:100E1000074B1A545DF804FB0023E9E700F00F00CC
:100E20001201D2B2034B1A54F4E700BF00ED00E008
:100E300000E400E014ED00E0002807DB00F01F02F2
:100E4000400901239340024A42F82030704700BF16
:100E500000E100E0002800F0068270B582B0044690
:100E6000036813F0010F29D0954B9B6803F00C0326
:100E7000042B1AD0924B9B6803F00C03082B0FD065
:100E80006368B3F5803F40D0002B54D18C4B1A6877
:100E900022F480321A601A6822F480221A6039E043
:100EA000874B5B6813F4800FEAD0854B1B6813F403
:100EB000003F03D06368002B00F0D781236813F054
:100EC000020F74D07E4B9B6813F00C0F5ED07C4BEE
:100ED0009B6803F00C03082B53D0E368002B00F051
:100EE0008980774A136843F00103136001F0C8F961
:100EF0000546734B1B6813F0020F72D101F0C0F965
:100F0000401B0228F5D90320B4E16D4A136843F46D
:100F10008033136063682BB301F0B2F90546684B68
:100F20001B6813F4003FC9D101F0AAF9401B6428E3
:100F3000F5D903209EE1B3F5A02F09D0604B1A68C4
:100F400022F480321A601A6822F480221A60E1E7E3
:100F50005B4B1A6842F480221A601A6842F48032AD
:100F60001A60D7E701F08CF90546554B1B6813F45E
:100F7000003FA3D001F084F9401B6428F5D9032079
:100F800078E14F4B5B6813F4800FA6D14C4B1B6884
:100F900013F0020F03D0E368012B40F06881484A48
:100FA000136823F0F803216943EAC103136023683F
:100FB00013F0080F46D0636983B3414A536F43F07F
:100FC0000103536701F05CF905463D4B5B6F13F07D
:100FD000020F37D101F054F9401B0228F5D9032044
:100FE00048E1374A136823F0F803216943EAC10353
:100FF0001360DCE7324A136823F00103136001F049
:101000003FF905462E4B1B6813F0020FCFD001F0BD
:1010100037F9401B0228F5D903202BE1284A536FEA
:1010200023F00103536701F02BF90546244B5B6F56
:1010300013F0020F06D001F023F9401B0228F5D966
:10104000032017E1236813F0040F7DD01C4B1B6CA9
:1010500013F0805F1ED11A4B1A6C42F080521A6452
:101060001B6C03F080530193019B0125154B1B68FA
:1010700013F4807F10D0A368012B25D0002B3BD127
:101080000F4B1A6F22F001021A671A6F22F0040246
:101090001A671EE00025E9E70A4A136843F48073E3
:1010A000136001F0EDF80646064B1B6813F4807FD1
:1010B000E1D101F0E5F8801B6428F5D90320D9E0DF
:1010C0000038024000700040724A136F43F0010381
:1010D0001367A36833B301F0D3F806466D4B1B6F5B
:1010E00013F0020F2FD101F0CBF8801B41F28833AF
:1010F0009842F3D90320BDE0052B09D0654B1A6F48
:1011000022F001021A671A6F22F004021A67E0E760
:10111000604B1A6F42F004021A671A6F42F0010224
:101120001A67D6E701F0ACF806465A4B1B6F13F06E
:10113000020F08D001F0A4F8801B41F288339842D6
:10114000F3D9032096E0FDB9A369002B00F091804C
:10115000504A926802F00C02082A59D0022B19D08A
:101160004C4A136823F08073136001F089F8044639
:10117000484B1B6813F0007F48D001F081F8001B3A
:101180000228F5D9032075E0424A136C23F08053FE
:101190001364D9E73F4A136823F08073136001F0AA
:1011A0006FF805463B4B1B6813F0007F06D001F03B
:1011B00067F8401B0228F5D903205BE0E369226A47
:1011C0001343626A43EA8213A26A5208013A43EA6D
:1011D0000243E26A43EA0263226B43EA02732D4A46
:1011E0005360136843F08073136001F049F80446BC
:1011F000284B1B6813F0007F06D101F041F8001B5B
:101200000228F5D9032035E0002033E0002031E04A
:10121000204A5268012B2FD002F48003E1698B42EF
:101220002CD102F03F03216A8B4229D1616A47F633
:10123000C0731340B3EB811F24D102F44031A36A81
:101240005B08013BB1EB034F1ED102F07063E16A12
:10125000B3EB016F1AD102F0E042236BB2EB037FD4
:1012600016D1002006E001207047012002E0012095
:1012700000E0002002B070BD0120FBE70120F9E78B
:101280000120F7E70120F5E70120F3E70120F1E76E
:101290000120EFE70038024008B5334B9B6803F0AC
:1012A0000C03042B5BD0082B5BD12F4B5A6802F048
:1012B0003F025B6813F4800F2CD02B4B5868C0F3AF
:1012C00088104FEA401CBCEB000C6EEB0E0E4FEA90
:1012D0008E1343EA9C634FEA8C11B1EB0C0163EB74
:1012E0000E03DB0043EA5173C90011EB000C43F11C
:1012F0000003590200234FEA4C2041EADC51FFF77A
:101300003FF8194B5B68C3F3014301335B00B0FB4B
:10131000F3F027E0144B5868C0F388104FEA401CE4
:10132000BCEB000C6EEB0E0E4FEA8E1343EA9C638F
:101330004FEA8C11B1EB0C0163EB0E03DB0043EAC7
:101340005173C90011EB000C43F100039902002313
:101350004FEA8C2041EA9C51FFF712F8D1E703488D
:1013600000E0034808BD00BF0038024000127A00C8
:101370000024F400002800F0A08070B50D4604465B
:10138000524B1B6803F00F038B420BD24F4A13687A
:1013900023F00F030B431360136803F00F038B421A
:1013A00040F08D80236813F0020F17D013F0040F64
:1013B00004D0474A936843F4E0539360236813F0E2
:1013C000080F04D0424A936843F460439360404A54
:1013D000936823F0F003A1680B439360236813F034
:1013E000010F31D06368012B20D0022B25D0384A61
:1013F000126812F0020F64D035498A6822F00302A5
:1014000013438B6000F03CFF0646314B9B6803F0B2
:101410000C036268B3EB820F16D000F031FF801B23
:1014200041F288339842F0D9032045E0284A1268F7
:1014300012F4003FE0D101203EE0254A126812F08C
:10144000007FD9D1012037E0204B1B6803F00F0348
:10145000AB420AD91D4A136823F00F032B431360D4
:10146000136803F00F03AB422DD1236813F0040F70
:1014700006D0174A936823F4E053E1680B43936066
:10148000236813F0080F07D0114A936823F46043D0
:10149000216943EAC1039360FFF7FEFE0C4B9B6892
:1014A000C3F303130B4AD35CD8400B4B18600B4BB0
:1014B0001868FFF72FFC002070BD01207047012045
:1014C000FAE70120F8E70120F6E700BF003C024000
:1014D00000380240F40001080C0000200800002041
:1014E000014B1868704700BF0C00002008B5FFF7DB
:1014F000F7FF044B9B68C3F38223034AD35CD840B5
:1015000008BD00BF003802400401010808B5FFF71C
:10151000E7FF044B9B68C3F34233034AD35CD840D4
:1015200008BD00BF00380240040101080F2303601A
:101530000B4B9A6802F0030242609A6802F0F002D4
:1015400082609A6802F4E052C2609B68DB0803F490
:10155000E0530361034B1B6803F00F030B607047FC
:1015600000380240003C0240F0B583B004460668F3
:1015700016F001060DD0B54B9A6822F400029A606D
:101580009A68416B0A439A60436B002B00F06781B5
:101590000026256815F4002511D0AC4AD2F88C300D
:1015A00023F44013E16B0B43C2F88C30E36BB3F5CB
:1015B000801F00F05681002B00F055810025236824
:1015C00013F4801F0FD0A14AD2F88C3023F44003CB
:1015D000216C0B43C2F88C30236CB3F5800F00F004
:1015E000448103B90125236813F0807F00D00126D0
:1015F00013F0200F40F03B81236813F0100F0CD044
:10160000924BD3F88C2022F08072C3F88C20D3F850
:101610008C20A16B0A43C3F88C20236813F4804FFD
:1016200008D08A4AD2F8903023F44033616E0B43DD
:10163000C2F89030236813F4004F08D0834AD2F8E0
:10164000903023F44023A16E0B43C2F890302368FE
:1016500013F4803F08D07D4AD2F8903023F4401331
:10166000E16E0B43C2F89030236813F4003F08D0BA
:10167000764AD2F8903023F44003216F0B43C2F82E
:101680009030236813F0400F08D0704AD2F89030A1
:1016900023F00303616C0B43C2F89030236813F00E
:1016A000800F08D0694AD2F8903023F00C03A16C67
:1016B0000B43C2F89030236813F4807F08D0634A4C
:1016C000D2F8903023F03003E16C0B43C2F8903035
:1016D000236813F4007F08D05C4AD2F8903023F0DE
:1016E000C003216D0B43C2F89030236813F4806F60
:1016F00008D0564AD2F8903023F44073616D0B4302
:10170000C2F89030236813F4006F08D04F4AD2F823
:10171000903023F44063A16D0B43C2F890302368EE
:1017200013F4805F08D0494AD2F8903023F4405334
:10173000E16D0B43C2F89030236813F4005F08D0CA
:10174000424AD2F8903023F44043216E0B43C2F852
:101750009030236813F4800F08D03C4AD2F89030C0
:1017600023F08063A16F0B43C2F89030236813F419
:10177000001F0DD0354AD2F8903023F00063E16F9E
:101780000B43C2F89030E36FB3F1006F00F0D580E7
:10179000236813F0080F00D0012513F4802F08D020
:1017A0002A4AD2F8903023F04073616F0B43C2F89D
:1017B0009030236813F4000F09D0244AD2F89030F7
:1017C00023F08053D4F880100B43C2F89030236884
:1017D00013F0806F09D01D4AD2F8903023F00053E7
:1017E000D4F884100B43C2F89030236813F0006FD4
:1017F00009D0164AD2F88C3023F00073D4F8881040
:101800000B43C2F88C30236813F0805F09D00F4A75
:10181000D2F88C3023F08063D4F88C100B43C2F8DC
:101820008C3026B9236813F0007F00F00681074A48
:10183000136823F08063136000F022FD0646034B1B
:101840001B6813F0006F7AD002E000BF003802403E
:1018500000F016FD801B6428F1D90320F0E001267A
:1018600097E60126A7E60125A9E60126B9E67F4B02
:101870001A6C42F080521A641B6C03F0805301937F
:10188000019B7B4A136843F48073136000F0F8FCFB
:101890000746774B1B6813F4807F06D100F0F0FCFD
:1018A000C01B6428F5D90320CAE0704B1B6F13F4EA
:1018B000407315D0226B02F440729A4210D06B4BE9
:1018C0001A6F22F44072196F41F480311967196F51
:1018D00021F4803119671A671B6F13F0010F12D1C1
:1018E000236B03F44072B2F5407F1DD05F4A9368CA
:1018F00023F4F81393605D490B6F226BC2F30B0264
:1019000013430B6778E600F0BBFC0746574B1B6F91
:1019100013F0020FE4D100F0B3FCC01B41F2883396
:101920009842F3D903208BE05048826822F4F812E1
:10193000504919400A438260DDE7012528E7236802
:1019400013F0010F13D0636B8BB9484AD2F884307F
:10195000D2F88410606803F4403343EA801301F046
:1019600070610B43A16843EA0173C2F884302368B5
:1019700013F4002F03D0E26BB2F5801F06D013F4EE
:10198000801F1ED0236CB3F5800F1AD1374AD2F8CE
:101990008430D2F88410606803F4403343EA801343
:1019A000E06843EA006301F0E0410B43C2F8843091
:1019B000D2F88C3023F01F03616A01390B43C2F85F
:1019C0008C30236813F0807F11D0284AD2F884002D
:1019D000D2F88410666823691B0443EA861300F07A
:1019E0007060034301F0E0410B43C2F88430236888
:1019F00013F0007F0DD0626823691B0443EA821351
:101A0000E26843EA0263A26843EA0273174AC2F833
:101A10008430164A136843F08063136000F030FC92
:101A20000646124B1B6813F0006F06D100F028FC2D
:101A3000801B6428F5D9032002E0012D02D000208C
:101A400003B0F0BD094A136823F08053136000F01F
:101A500017FC0546054B1B6813F0005F0CD000F027
:101A60000FFC401B6428F5D90320E9E70038024049
:101A700000700040FFFCFF0F236813F4002F01D01B
:101A8000E26B22B113F4801F1DD0236CDBB9354A01
:101A9000D2F88830D2F88810606903F4403343EA02
:101AA0008013A06943EA006301F0E0410B43C2F8F0
:101AB0008830D2F88C3023F4F853A16A013943EA14
:101AC0000123C2F88C30236813F4001F03D0E36FA6
:101AD000B3F1006F31D0236813F0080F19D0214AF9
:101AE000D2F88810D2F88830606903F4403343EAB2
:101AF000801301F070610B43E16943EA0173C2F89E
:101B00008830D2F88C3023F44033E16A0B43C2F8BA
:101B10008C30144A136843F08053136000F0B0FB1C
:101B20000446104B1B6813F0005F19D100F0A8FBAE
:101B3000001B6428F5D9032082E70A4AD2F88800FE
:101B4000D2F888106569236A1B0443EA851300F004
:101B50007060034301F0E0410B43C2F88830BAE7FC
:101B600000206DE70038024000230F2B00F2F480C4
:101B700070B582B066E085684FEA430E032404FA2C
:101B80000EF425EA0405CC6804FA0EF42C438460B4
:101B9000446824EA02044A68C2F300129A402243CD
:101BA00042605DE0DC08083450F8242003F00705AB
:101BB000AD004FF00F0E0EFA05FE22EA0E0E0A6976
:101BC000AA4042EA0E0240F824205DE0092200E02B
:101BD000002202FA0EF22A430234604D45F8242016
:101BE0005F4A94686FEA0C0224EA0C054E6816F40A
:101BF000801F01D04CEA0405594CA560E46802EA54
:101C000004054E6816F4001F01D04CEA0405544C3C
:101C1000E560646802EA04054E6816F4003F01D0EE
:101C20004CEA04054E4C6560246822404D6815F46A
:101C3000803F01D04CEA0402494C226001330F2B53
:101C400000F2888001229A400C6804EA020C32EA11
:101C50000404F3D14C6804F00304013C012C8AD93C
:101C60004A6802F00302032A09D0C4685D00032217
:101C7000AA4024EA02048A68AA402243C2604A6851
:101C800002F00302022A8DD004684FEA430E0322B9
:101C900002FA0EF224EA02044A6802F0030202FA8F
:101CA0000EF2224302604A6812F4403FC6D02D4A29
:101CB000546C44F480445464526C02F480420192A7
:101CC000019A9C08A51C254A52F8255003F0030EE2
:101CD0004FEA8E0E0F2202FA0EF225EA0205224A80
:101CE00090423FF475AF02F58062904222D002F537
:101CF0008062904220D002F5806290421ED002F5B0
:101D0000806290421CD002F5806290421AD002F5A7
:101D10008062904218D002F58062904216D002F59F
:101D20008062904214D002F5806290423FF44EAF40
:101D30000A224EE701224CE702224AE7032248E743
:101D4000042246E7052244E7062242E7072240E74D
:101D500008223EE702B070BD704700BF0038014066
:101D6000003C014000380240000002400AB181619D
:101D7000704709048161704730B405682C6824F409
:101D800080242C60046863608368402B05D003685E
:101D900099600368DA6030BC704703689A60036832
:101DA000D960F8E710B40168CAB2103A0A4BA3FB35
:101DB00002431B09094CE35CC3655F2A07D9084B42
:101DC0000B4004338365806D5DF8044B7047044B12
:101DD0000B408365F7E700BFABAAAAAAEC00010895
:101DE00000FCFFFF836A826992B9012B0AD0022BA3
:101DF00002D00BB100207047C36A13F0807F28D156
:101E000000207047C36AB3F1C07F24D00020704720
:101E1000B2F5005F09D0022B25D9032B25D1C36A67
:101E200013F0807F23D100207047032B03D8DFE815
:101E300003F01404140A00207047C36A13F0807F73
:101E40000DD100207047C36AB3F1C07F09D00020D4
:101E50007047012070470120704701207047012022
:101E60007047012070470120704700207047012013
:101E70007047000070B5044600F002FA002C5BD0F9
:101E80000546022384F83530002384F83430226874
:101E9000136823F00103136023681A6812F0010F1E
:101EA0000AD000F0EDF9431B052BF5D9202363651B
:101EB000032084F8350070BD1A682049114062681B
:101EC000A0680243E068024320690243606902435C
:101ED000A0690243E0690243206A02430A43616A3F
:101EE00004291ED01A602668756925F00705636A03
:101EF0001D43042B07D1A36A1D43E36A1BB120468F
:101F0000FFF770FF90B975612046FFF74BFFE26D58
:101F10003F239340836000206065012384F83530BF
:101F2000C9E7E16A206B01430A43DBE740236365AD
:101F3000012084F83500BEE70120BCE73F8010E0B7
:101F400038B50446856D90F83400012830D0012062
:101F500084F8340094F83500C0B2012804D000237E
:101F600084F83430022038BD022084F83500002087
:101F700060652046FFF700FFE26D3F239340AB60B2
:101F80002268136843F0160313602268536943F014
:101F900080035361236C23B12268136843F0080364
:101FA00013602268136843F0010313600020DAE72E
:101FB0000220D8E770B50446866D00F061F994F808
:101FC0003530DBB2022B06D080236365002384F812
:101FD0003430012070BD05462268136823F01603D3
:101FE00013602268536923F080035361236CE3B1CB
:101FF0002268136823F0080313602268136823F033
:102000000103136023681B6813F0010F11D000F067
:1020100037F9431B052BF5D920236365032084F88A
:102020003500002384F83430D4E7A36C002BDFD1D3
:10203000E3E7E26D3F239340B360012384F835303A
:10204000002084F83400C5E790F83530DBB2022B6D
:1020500003D08023436501207047052380F8353085
:102060000268136823F0010313600020704700002A
:10207000F0B583B0044600230193724B1D68724B88
:10208000A3FB0535AD0A876D3E68C26D08239340FA
:10209000334210D003681A6812F0040F0BD01A688C
:1020A00022F004021A60C26D08239340BB60436DA6
:1020B00043F001034365E26D01239340334209D0AD
:1020C0002268526912F0800F04D0BB60636D43F048
:1020D00002036365E26D04239340334209D0226812
:1020E000126812F0020F04D0BB60636D43F004036A
:1020F0006365E26D10239340334224D02268126856
:1021000012F0080F1FD0BB6023681A6812F4802FEA
:102110000DD01B6813F4002F04D1236C9BB1204613
:10212000984710E0A36C73B1204698470BE01A68FB
:1021300012F4807F03D11A6822F008021A60236C1F
:102140000BB120469847E26D20239340334255D08F
:102150002268126812F0100F50D0BB6094F835302E
:10216000DBB2052B0ED023681A6812F4802F33D00F
:102170001B6813F4002F2AD1636C002B3ED020463D
:1021800098473BE02268136823F016031360226827
:10219000536923F080035361236CA3B12268136851
:1021A00023F008031360E26D3F239340BB600123DB
:1021B00084F83530002384F83430236D002B3FD071
:1021C000204698473CE0A36C002BE7D1EBE7E36B9C
:1021D000A3B12046984711E01A6812F4807F09D114
:1021E0001A6822F010021A60012384F835300023A7
:1021F00084F83430E36B0BB120469847636DFBB134
:10220000636D13F0010F17D0052384F83530226871
:10221000136823F001031360019B01330193AB4268
:1022200004D823681B6813F0010FF5D1012384F84B
:102230003530002384F83430E36C0BB120469847E6
:1022400003B0F0BD0C000020B5814E1B406D7047FF
:1022500008B50320FEF7A8FD0F20FEF75BFDFEF793
:1022600039FD002008BD0000034A1168034B1B78AC
:102270000B441360704700BF583400200400002056
:10228000014B1868704700BF5834002070470000A9
:1022900090F83D30DBB2012B3AD1022380F83D307B
:1022A0000268D36843F00103D36003681A4AB3F1AC
:1022B000804F18BF93421DD0A2F57C42934219D0A3
:1022C00002F58062934215D002F58062934211D0EC
:1022D00002F5784293420DD002F57052934209D034
:1022E000A2F59432934205D01A6842F001021A60B6
:1022F000002070479968094A0A40062A18BFB2F5BB
:10230000803F07D01A6842F001021A60002070472F
:1023100001207047002070470000014007000100C5
:10232000704770477047704710B5044603681A69D4
:1023300012F0020F11D0DA6812F0020F0DD06FF018
:1023400002021A610123037703689B6913F0030FEC
:1023500079D0FFF7E6FF0023237723681A6912F08C
:10236000040F12D0DA6812F0040F0ED06FF00402DE
:102370001A610223237723689B6913F4407F68D096
:102380002046FFF7CEFF0023237723681A6912F057
:10239000080F12D0DA6812F0080F0ED06FF00802A2
:1023A0001A61042323772368DB6913F0030F57D0E6
:1023B0002046FFF7B6FF0023237723681A6912F03F
:1023C000100F12D0DA6812F0100F0ED06FF010025A
:1023D0001A61082323772368DB6913F4407F46D012
:1023E0002046FFF79EFF0023237723681A6912F027
:1023F000010F03D0DA6812F0010F3FD123681A6988
:1024000012F0800F03D0DA6812F0800F3DD12368FC
:102410001A6912F4807F03D0DA6812F0800F3BD182
:1024200023681A6912F0400F03D0DA6812F0400FE7
:1024300039D123681A6912F0200F03D0DA6812F03C
:10244000200F37D110BDFFF76BFF2046FFF76AFF63
:1024500081E72046FFF764FF2046FFF763FF92E71E
:102460002046FFF75DFF2046FFF75CFFA3E720460D
:10247000FFF756FF2046FFF755FFB4E76FF0010264
:102480001A612046FEF70CF9B8E76FF080021A6176
:10249000204600F0D0F8BAE76FF480721A61204647
:1024A00000F0CAF8BCE76FF040021A612046FFF75F
:1024B0003AFFBEE76FF020021A61204600F0BAF83A
:1024C000C0E7000030B503683B4A904214BF4FF0AC
:1024D000000E4FF0010EB0F1804F14BF72464EF067
:1024E0000102AAB9354CA04214BF00240124344D86
:1024F000A8420DD064B904F1804404F58234A042AE
:1025000014BF0024012405F50065A84200D01CB1C9
:1025100023F070034C682343002A33D1274A9042AA
:1025200014BF00220122264CA0422BD052BB02F144
:10253000804202F58232904214BF0022012204F54B
:102540000064A0421ED0EAB91E4A904214BF002285
:10255000012204F59A34A04214D09AB91A4A904242
:1025600014BF0022012204F50064A0420AD04AB937
:10257000164A904214BF00220122A4F59634A042CC
:1025800000D022B123F4407CCB6843EA0C0323F053
:1025900080034A69134303608A68C2620A688262E0
:1025A0000B4A904214BF73464EF001030BB10B6906
:1025B00003630123436130BD000001400008004077
:1025C000000400400044014000180040002000408A
:1025D0000004014060B310B5044690F83D3013B3D9
:1025E000022384F83D30214651F8040BFFF76AFFBF
:1025F000012384F8483084F83E3084F83F3084F872
:10260000403084F8413084F8423084F8433084F814
:10261000443084F8453084F8463084F8473084F8F4
:102620003D30002010BD80F83C30FFF72FFED7E78B
:1026300001207047704770477047026852E8003FBA
:1026400023F0C00342E800310029F6D12023C367FC
:102650007047026852E8003F23F4907342E800316B
:102660000029F6D1026802F1080353E8003F23F085
:102670000103083242E800310029F3D1036E012B37
:1026800006D02023C0F8803000230366836670479D
:10269000026852E8003F23F0100342E800310029AD
:1026A000F6D1EEE71346C26F202A3BD110B504469F
:1026B000002B18BF002937D0C164A0F85030A0F813
:1026C00052300022C0F884202122C267026FC2B1BA
:1026D0001649D163026F16491164026F1549D1641E
:1026E000026F0021116502682832C16C006FFFF78C
:1026F00027FC30B11023C4F884302023E367012085
:102700000FE0236840221A62226802F1080353E8AE
:10271000003F43F08003083242E800310029F3D142
:10272000002010BD022070470120FAE7E7270008CB
:10273000512800086128000838B50446C26FD0F857
:10274000805003689B6813F0800F01D0212A08D0C5
:1027500023689B6813F0400F42D0222D20D0002028
:102760003FE0226802F1080353E8003F23F08003B2
:10277000083242E800310029F3D1206F10B1FFF791
:1027800019FC18B92046FFF758FFE1E7206FFFF763
:102790005DFD2028F6D11023C4F88430032020E00A
:1027A000226802F1080353E8003F23F04003083297
:1027B00042E800310029F3D1606F10B1FFF7FAFB56
:1027C00020B92046FFF745FF00200AE0606FFFF7C1
:1027D0003DFD2028F5D11023C4F88430032000E00B
:1027E000002038BD704708B5816BC369B3F5807FA1
:1027F00018D00023A1F852300A6802F1080353E808
:10280000003F23F08003083242E800300028F3D173
:102810000A6852E8003F43F0400342E800300028D5
:10282000F6D108BD0846FFF7DDFFFAE708B50268F4
:1028300052E8003F23F0400342E800310029F6D17E
:102840002023C3670023C366FFF7CCFF08BD704792
:1028500008B5806BFFF7FBFF08BD704770477047F6
:1028600038B5846BE26FD4F8805023689B6813F00E
:10287000800F01D0212A10D023689B6813F0400FED
:1028800001D0222D10D0D4F8843043F01003C4F8C6
:1028900084302046FFF7E3FF38BD0023A4F8523010
:1028A0002046FFF7CAFEE7E70023A4F85A30204687
:1028B000FFF7CFFEE7E708B5806B0023A0F85A309A
:1028C000A0F85230FFF7CBFF08BD704708B5806B0A
:1028D00001234366036E012B02D0FFF7BFFF08BD43
:1028E000B0F858104908FFF7F0FFF8E708B50346BD
:1028F000806BDB69B3F5807F29D00023A0F85A30C4
:10290000026852E8003F23F4807342E80031002956
:10291000F6D1026802F1080353E8003F23F00103F7
:10292000083242E800310029F3D1026802F10803BD
:1029300053E8003F23F04003083242E80031002909
:10294000F3D12023C0F88030036E012B07D0002381
:102950004366036E012B0CD0FFF77FFF08BD0268B2
:1029600052E8003F23F0100342E800310029F6D17D
:10297000EDE7B0F85810FFF7A8FFEFE77047000049
:1029800070B504460168CB6908688D6840F60F028F
:102990001A4005D113F0200F02D010F0200F20D1E3
:1029A0002AB115F0010222D1AE4E30421FD1226E63
:1029B000012A00F0AB8013F4801F03D015F4800FC0
:1029C00040F03E8113F0800F03D010F0800F40F0F4
:1029D0003E8113F0400F03D010F0400F40F03E81D5
:1029E00070BDA36E002BFBD020469847F8E713F08C
:1029F000010F09D010F4807F06D001250D62D4F8B4
:102A000084102943C4F8841013F0020F09D042B196
:102A1000216802250D62D4F8841041F00401C4F845
:102A2000841013F0040F09D042B1216804250D620F
:102A3000D4F8841041F00201C4F8841013F0080F98
:102A40000BD010F0200F00D13AB12268082111629A
:102A5000D4F884200A43C4F8842013F4006F0CD007
:102A600010F0806F09D022684FF400611162D4F831
:102A7000842042F02002C4F88420D4F88420002A64
:102A8000AED013F0200F06D010F0200F03D0A36EAD
:102A90000BB120469847D4F8842023689B6813F034
:102AA000400F02D112F0280F29D02046FFF7D1FDA8
:102AB00023689B6813F0400F1DD0226802F10803C1
:102AC00053E8003F23F04003083242E80031002978
:102AD000F3D1636F5BB1644A1A65606FFFF7B4FAB4
:102AE00000283FF47DAF606F036D984778E720467C
:102AF000FFF7B5FE74E72046FFF7B1FE70E720460A
:102B0000FFF7ADFE0023C4F8843069E713F0100F1F
:102B10003FF451AF10F0100F3FF44DAF10230B6294
:102B200023689B6813F0400F50D0626F13685B6896
:102B30009BB2002B3FF454AFB4F8581099427FF683
:102B40004FAFA4F85A30D369B3F5807F31D02268F3
:102B500052E8003F23F4807342E800310029F6D1A7
:102B6000226802F1080353E8003F23F00103083212
:102B700042E800310029F3D1226802F1080353E84A
:102B8000003F23F04003083242E800310029F3D12E
:102B90002023C4F8803000232366226852E8003FD7
:102BA00023F0100342E800310029F6D1606FFFF7EF
:102BB00001FA02236366B4F85810B4F85A309BB295
:102BC000C91A89B22046FFF780FE09E7B4F8581009
:102BD000B4F85A309BB2C91A89B2B4F85A309BB2D1
:102BE000002B3FF4FDAE00293FF4FAAE226852E814
:102BF000003F23F4907342E800300028F6D12268A9
:102C000002F1080353E8003F23F00103083242E8D1
:102C100000300028F3D12023C4F88030002323663D
:102C2000A366226852E8003F23F0100342E8003018
:102C30000028F6D1022363662046FFF746FECFE662
:102C40004FF480130B622046FFF798FEC8E6E36E50
:102C5000002B3FF4C5AE20469847C1E62046FFF75B
:102C6000E5FDBDE620010004B728000810B50446C4
:102C700083680269134342691343C26913430168BD
:102C80000868934A02401A430A602268536823F492
:102C90004053E1680B435360A269236A1A432168D9
:102CA0008B6823F4306313438B602368894A934213
:102CB00019D0894A934229D0884A93423ED0884A03
:102CC000934262D0874A934271D0874A934200F080
:102CD0008380864A934200F09480854A934200F0B4
:102CE000A58010233AE0834BD3F8903003F0030320
:102CF000032B09D8DFE803F00204AE0601232DE020
:102D000004232BE0082329E0102327E0794BD3F894
:102D1000903003F00C030C2B0ED8DFE803F0070D06
:102D20000D0D090D0D0D9D0D0D0D0B00002315E072
:102D3000042313E0082311E010230FE06D4BD3F8B8
:102D4000903003F03003202B00F0888019D8002B3E
:102D500000F08680102B40F085800423E069B0F5F8
:102D6000004F00F0AB80082B00F20C81DFE813F07D
:102D7000E800FB00E6000A01FE000A010A010A0160
:102D80000101302B70D10823E8E75A4BD3F890307B
:102D900003F0C003802B69D005D8002B68D0402BEE
:102DA00068D10423DAE7C02B66D10823D6E7514B5C
:102DB000D3F8903003F44073B3F5007F5ED006D8AB
:102DC000002B5DD0B3F5807F5CD10423C6E7B3F55B
:102DD000407F59D10823C1E7464BD3F8903003F424
:102DE0004063B3F5006F51D006D8002B50D0B3F537
:102DF000806F4FD10423B1E7B3F5406F4CD1082366
:102E0000ACE73C4BD3F8903003F44053B3F5005F8C
:102E100044D006D8002B43D0B3F5805F42D10423C1
:102E20009CE7B3F5405F3FD1082397E7314BD3F8D8
:102E3000903003F44043B3F5004F37D005D8BBB30F
:102E4000B3F5804F36D1042388E7B3F5404F33D133
:102E5000082383E7022381E702237FE702237DE73C
:102E600000237BE7102379E7102377E7022375E738
:102E7000002373E7102371E710236FE702236DE748
:102E800000236BE7102369E7102367E7022365E758
:102E9000012363E7102361E710235FE702235DE767
:102EA00000235BE7102359E7102357E7022355E778
:102EB000002353E7102351E710234FE7082B5BD87B
:102EC000DFE803F01A343A5A375A5A5A1E0000BF44
:102ED000F369FFEF0010014000440040004800404B
:102EE000004C0040005000400014014000780040B9
:102EF000007C004000380240FEF7F8FA00283DD080
:102F00006268530803EB4003B3FBF2F3A3F1100133
:102F10004FF6EF72914233D89AB222F00F02C3F308
:102F2000420313432268D360002030E0FEF7EEFA3C
:102F3000E4E7FEF7B1F9E1E71748E1E7164802E0F8
:102F4000FEF7D4FA00B3636800EB5300B0FBF3F074
:102F5000A0F110024FF6EF739A4217D8236880B29F
:102F6000D860002013E0FEF7D1FAEBE7FEF794F902
:102F7000E8E74FF40040E6E7012008E0002006E023
:102F8000012004E0012002E0002000E001200023F5
:102F9000A366E36610BD00BF0024F400436A13F08B
:102FA000010F06D00268536823F40033816A0B4393
:102FB0005360436A13F0020F06D00268536823F48B
:102FC0008033C16A0B435360436A13F0040F06D089
:102FD0000268536823F48023016B0B435360436AF8
:102FE00013F0080F06D00268536823F40043416BC6
:102FF0000B435360436A13F0100F06D002689368C6
:1030000023F48053816B0B439360436A13F0200FCA
:1030100006D00268936823F40053C16B0B4393609E
:10302000436A13F0400F0AD00268536823F48013F8
:10303000016C0B435360036CB3F5801F0BD0436AE4
:1030400013F0800F06D00268536823F40023816CCC
:103050000B43536070470268536823F4C003416C0C
:103060000B435360EBE72DE9F84305460F46164640
:103070009946DDF820802B68DC6937EA04040CBF30
:1030800001240024B44255D1B8F1FF3FF3D0FFF73B
:10309000F7F8A0EB090040452ED8B8F1000F2BD06F
:1030A0002B681A6812F0040FE5D0DA6912F4006F89
:1030B000E1D04FF400621A622A6852E8003F23F41C
:1030C000D07342E800310029F6D12A6802F10803E2
:1030D00053E8003F23F00103083242E800310029A1
:1030E000F3D12023EB67C5F88030C5F88430002386
:1030F00085F8783003201EE02A6852E8003F23F468
:10310000D07342E800310029F6D12A6802F10803A1
:1031100053E8003F23F00103083242E80031002960
:10312000F3D12023EB67C5F88030002385F8783091
:10313000032000E00020BDE8F88330B583B00446EA
:103140000023C0F88430FFF79BF805462268126818
:1031500012F0080F0FD123681B6813F0040F18D169
:103160002023E367C4F8803000202066606684F87E
:10317000780003B030BD6FF07E4300930346002219
:103180004FF400112046FFF76EFF0028E3D0032024
:10319000EFE76FF07E4300932B4600224FF480014F
:1031A0002046FFF760FF0028DAD00320E1E768B38C
:1031B00010B50446C36F03B32423E3672268136882
:1031C00023F0010313602046FFF750FD012813D0C0
:1031D000636ABBB92268536823F490435360226842
:1031E000936823F02A0393602268136843F0010375
:1031F00013602046FFF7A1FF10BD80F87830FDF77F
:1032000051FCD9E72046FFF7C9FEE3E701207047EC
:1032100010B5044613464165A0F858200022C0F8B6
:1032200084202222C0F88020426F8AB11F49D163D6
:10323000426F1F491164426F1E49D164426F0021E1
:1032400011650168426D2431406FFEF779FE20BBA5
:10325000236943B1226852E8003F43F4807342E897
:1032600000310029F6D1226802F1080353E8003F3B
:1032700043F00103083242E800310029F3D122680B
:1032800002F1080353E8003F43F04003083242E8EC
:1032900000310029F3D1002010BD1023C4F8843080
:1032A0002023C4F880300120F6E700BFED28000895
:1032B000CD2800086128000838B5D0F88030202BD0
:1032C00016D1002A18BF002914D000230366036812
:1032D0005B6813F4000F08D0046854E8003F43F023
:1032E000806344E80035002DF6D1FFF791FF00E040
:1032F000022038BD0120FCE7034AD2F8883043F4AD
:103300007003C2F88830704700ED00E000F1080358
:1033100043604FF0FF328260C360036100230360AB
:10332000704700230361704743684B609A688A6066
:10333000516099600861036801330360704730B4DD
:103340000D68B5F1FF3F11D000F108031C465B6822
:103350001A68AA42FAD963684B6099608C60616010
:10336000086103680133036030BC70470469F2E709
:103370000369416882688A60416851605A68824284
:1033800006D0002202611A68013A1A601868704774
:1033900082685A60F5E710B5044601F09BFDA26B08
:1033A000E36B9A4204D0002401F0BAFD204610BD20
:1033B0000124F9E710B5044601F08CFDA36B23B995
:1033C000012401F0ADFD204610BD0024F9E770B5E1
:1033D00004461546866B026C5AB903681BB100207F
:1033E0000136A66370BD806801F080F80023A360F9
:1033F000F6E76DB9406802F034FB226C6368134451
:103400006360A268934219D3236863602846E7E7A4
:10341000C06802F026FB226C5142E3689B1AE3600D
:103420002268934202D2A3680B44E360022D01D0CC
:103430000020D5E726B1013E0020D1E72846CFE79E
:103440000020CDE70346026C6AB110B50846D96882
:103450001144D9609C68A14201D31968D960D96828
:1034600002F0FFFA10BD704738B5054601F032FD95
:1034700095F8454064B201E0013C64B2002C0ADDDD
:103480006B6A43B105F1240000F062FF0028F3D01D
:1034900001F016F8F0E7FF2385F8453001F040FD14
:1034A00001F018FD95F8444064B201E0013C64B2BB
:1034B000002C0ADD2B6943B105F1100000F048FF34
:1034C0000028F3D000F0FCFFF0E7FF2385F844303C
:1034D00001F026FD38BD38B5E0B10D46044601F0D7
:1034E000F9FC2368E26B216C01FB0230A060002034
:1034F000A0636360013A02FB0133E360FF2384F8B9
:10350000443084F845300DBB236973B901F008FDE0
:10351000012038BD4FF0500372B683F31188BFF31A
:103520006F8FBFF34F8F62B6FEE704F1100000F01B
:103530000FFF0028EAD04FF0E0234FF08052C3F88D
:10354000042DBFF34F8FBFF36F8FDFE704F110003F
:10355000FFF7DCFE04F12400FFF7D8FED6E738B50C
:103560001D46049C0B4649B92460E0632364012195
:103570002046FFF7B0FF84F84C5038BD2260F4E7D6
:1035800050B94FF0500372B683F31188BFF36F8FB9
:10359000BFF34F8F62B6FEE710B584B01C4693B1FF
:1035A0000B1E18BF0123002A08BF43F00103ABB96B
:1035B0004FF0500372B683F31188BFF36F8FBFF3E0
:1035C0004F8F62B6FEE74FF0500372B683F3118857
:1035D000BFF36F8FBFF34F8F62B6FEE7B1FA81F38F
:1035E0005B09002A18BF43F0010353B94FF05003A1
:1035F00072B683F31188BFF36F8FBFF34F8F62B63C
:10360000FEE750230393039B502B0AD04FF0500347
:1036100072B683F31188BFF36F8FBFF34F8F62B61B
:10362000FEE7039B012384F8463000949DF8183090
:10363000FFF795FF204604B010BDF0B585B00192AC
:1036400098B10F461D460446D1B1022D26D1E36B39
:10365000012B23D04FF0500372B683F31188BFF3D0
:103660006F8FBFF34F8F62B6FEE74FF0500372B615
:1036700083F31188BFF36F8FBFF34F8F62B6FEE7FE
:10368000036C002BE1D04FF0500372B683F3118826
:10369000BFF36F8FBFF34F8F62B6FEE700F016FFE8
:1036A000064668B9019B002B4AD04FF0500372B612
:1036B00083F31188BFF36F8FBFF34F8F62B6FEE7BE
:1036C00000263DE02A4639462046FFF780FE636A21
:1036D0007BB948B14FF0E0234FF08052C3F8042D7E
:1036E000BFF34F8FBFF36F8F01F01AFC012005B0BD
:1036F000F0BD04F1240000F02BFE0028F4D04FF0C0
:10370000E0234FF08052C3F8042DBFF34F8FBFF377
:103710006F8FE9E701F004FC0020E8E702A800F061
:103720007DFE012619E0002384F8443021E00023C7
:1037300084F8453023E02046FFF796FE00F0D8FCE1
:1037400001F0C8FBA26BE36B9A42BBD3022DB9D048
:10375000019B002BDED0002EE0D001F0E1FB00F059
:103760002BFC01F0B7FB94F8442052B2B2F1FF3FBA
:10377000D9D094F8452052B2B2F1FF3FD7D001F032
:10378000CFFB01A902A800F055FED8B92046FFF7EB
:1037900002FE0028CFD0019904F1100000F0A0FD36
:1037A0002046FFF761FE00F0A3FC0028C8D14FF0CF
:1037B000E0234FF08052C3F8042DBFF34F8FBFF3C7
:1037C0006F8FBDE72046FFF74FFE00F091FC002011
:1037D0008DE72DE9F843A0B10F4616461C46054675
:1037E000D1B1022C26D1EB6B012B23D04FF050032B
:1037F00072B683F31188BFF36F8FBFF34F8F62B63A
:10380000FEE74FF0500372B683F31188BFF36F8F5A
:10381000BFF34F8F62B6FEE7036C002BE1D04FF091
:10382000500372B683F31188BFF36F8FBFF34F8FCE
:1038300062B6FEE701F054FCEFF311884FF050033D
:1038400072B683F31188BFF36F8FBFF34F8F62B6E9
:10385000AA6BEB6B9A4206D3022C04D0002088F3AB
:103860001188BDE8F88395F845904FFA89F922460A
:1038700039462846FFF7ABFDB9F1FF3F06D009F105
:1038800001035BB285F845300120E8E76B6A0BB9AC
:103890000120E4E705F1240000F05AFD18B126B13B
:1038A00001203060DBE70120D9E70120D7E7F0B540
:1038B00085B00192A0B10F460446E1B100F006FECA
:1038C000064630BB019B002B64D04FF0500372B60C
:1038D00083F31188BFF36F8FBFF34F8F62B6FEE79C
:1038E0004FF0500372B683F31188BFF36F8FBFF3AD
:1038F0004F8F62B6FEE7036C002BDFD04FF0500312
:1039000072B683F31188BFF36F8FBFF34F8F62B628
:10391000FEE700263EE039462046FFF793FD013DD5
:10392000A563236923B901F0FBFA012005B0F0BDBE
:1039300004F1100000F00CFD0028F4D04FF0E0235B
:103940004FF08052C3F8042DBFF34F8FBFF36F8F3A
:10395000E9E701F0E5FA0020E8E702A800F05EFDE3
:10396000012621E0002384F8443029E0002384F874
:1039700045302BE02046FFF777FD00F0B9FB09E06A
:103980002046FFF771FD00F0B3FB2046FFF712FD64
:1039900000283FD101F09EFAA56B002DBBD1019B01
:1039A000002BD6D0002ED8D001F0BAFA00F004FBDC
:1039B00001F090FA94F844305BB2B3F1FF3FD1D0FC
:1039C00094F845305BB2B3F1FF3FCFD001F0A8FAD5
:1039D00001A902A800F02EFD0028D1D12046FFF752
:1039E000E9FC0028C6D0019904F1240000F078FC1D
:1039F0002046FFF739FD00F07BFB0028CAD14FF0CD
:103A0000E0234FF08052C3F8042DBFF34F8FBFF374
:103A10006F8FBFE7002089E70023072B0CD8074AE8
:103A200052F833200AB10133F7E7044A42F8331061
:103A300002EBC30250607047704700BF5C34002047
:103A400070B504460D46164601F044FA94F8443029
:103A50005BB2B3F1FF3F0DD094F845305BB2B3F1E8
:103A6000FF3F0BD001F05CFAA36B5BB12046FFF780
:103A7000FBFC70BD002384F84430EDE7002384F89C
:103A80004530EFE73246294604F1240000F042FCBD
:103A9000ECE70000084B1B681B6823B9074B4FF08D
:103AA000FF321A607047044B1B68DB68DB685A689A
:103AB000024B1A60704700BFA03400204C39002030
:103AC0002DE9F04780460D4617469946089EDDF8D9
:103AD00024A00A9C9200A521206B01F0F0FE236B2C
:103AE0006FF040423A4403EB820727F00707002DAE
:103AF00061D04FF0000CBCF10F0F09D815F80C3055
:103B000004EB0C0282F8343013B10CF1010CF2E733
:103B1000002384F84330372E00D93726E662E66466
:103B200000252565201DFFF7FCFB04F11800FFF7B9
:103B3000F8FB2461C6F13806A6616462C4F87851C6
:103B400084F87C514FF49072294604F1580001F03A
:103B5000B6FE1B4BE36503F168022266D033636651
:103B600001220023C4E93C2343F20E33A4F8F830C9
:103B70004AF6CD33A4F8FA3041F23423A4F8FC30ED
:103B80004EF26D63A4F8FE304DF6EC63A4F80031FC
:103B90000523A4F802310B23A4F804314A46414618
:103BA000384601F06DF92060BAF1000F01D0CAF873
:103BB0000040BDE8F087002384F83430ABE700BF55
:103BC00018C4002038B5002407E004EB84029300F9
:103BD0000E481844FFF79AFB0134372CF5D90C4DE9
:103BE0002846FFF793FB0B4C2046FFF78FFB0A4854
:103BF000FFF78CFB0948FFF789FB0948FFF786FBB5
:103C0000084B1D60084B1C6038BD00BFA834002065
:103C10002039002034390020543900208039002018
:103C20006C390020A0340020A434002010B50446D4
:103C300001F050F9224A136801331360214B1B68CD
:103C40005BB1214B1B686BB91E4B1B68DA6AE36AD8
:103C50009A4207D81B4B1C6004E01A4B1C60136887
:103C6000012B29D0194A1368013313606364E06A99
:103C7000174B1B68984201D9154B186000EB800068
:103C8000211D144B03EB8000FFF74EFB01F048F9B8
:103C90000D4B1B687BB10B4B1B68DA6AE36A9A42D7
:103CA00009D24FF0E0234FF08052C3F8042DBFF348
:103CB0004F8FBFF36F8F10BDFFF784FFD2E700BFB8
:103CC000083900209C340020683900201839002071
:103CD0001C390020A834002010B50446583001F0EB
:103CE00007FE94F87D3173B1012B13D0022B10D055
:103CF0004FF0500372B683F31188BFF36F8FBFF399
:103D00004F8F62B6FEE7206B01F03CF8204601F0D1
:103D100039F810BD204601F035F8FAE70F4B1B6863
:103D2000D3B110B501F0D6F80D4BDB68DC68201D6F
:103D3000FFF71EFB0B4A1368013B1360074A136829
:103D4000013B136001F0ECF82046FFF7C5FF034B81
:103D50001B68002BE6D110BD704700BF0C39002056
:103D6000803900200839002008B5FFF7D7FF074B3E
:103D70001B68012BF9D94FF0E0234FF08052C3F8B4
:103D8000042DBFF34F8FBFF36F8FEEE7A8340020F1
:103D900070B504460D46194B1E68194B186804305F
:103DA000FFF7E6FAB4F1FF3F14BF00230123002D13
:103DB00008BF00236BB93444114B1B685C60A642FA
:103DC0000ED9104B18680E4B19680431FFF7B7FA7B
:103DD00070BD0B4B196804310B48FFF7A5FAF7E7E4
:103DE0000A4B1868064B19680431FFF7A8FA084B0C
:103DF0001B68A342ECD9064B1C60E9E7943900200C
:103E00009C340020A43400206C390020A034002011
:103E10004C39002030B587B00B9C9CB10C9DE5B1AE
:103E20004FF4C0750495049DB5F5C07F20D04FF0C8
:103E3000500372B683F31188BFF36F8FBFF34F8FB8
:103E400062B6FEE74FF0500372B683F31188BFF3FA
:103E50006F8FBFF34F8F62B6FEE74FF0500372B61D
:103E600083F31188BFF36F8FBFF34F8F62B6FEE706
:103E7000049D0C9D2C63022485F87D41002403944D
:103E8000029505AC01940A9C0094FFF719FE0C986A
:103E9000FFF7CCFE059807B030BD2DE9F04385B0A3
:103EA0000746884614461E46900000F0EFFE08B311
:103EB00081464FF4C07000F0E9FE0546B0B1C0F88D
:103EC0003090E5B1002385F87D31039302950D9B79
:103ED00001930C9B00933346224641463846FFF738
:103EE000EFFD2846FFF7A2FE012005E0484600F05E
:103EF00049FFE6E74FF0FF3005B0BDE8F0834FF033
:103F0000FF30F9E710B588B000240594069407AA9D
:103F100006A905A800F03EFE059B0293069B0193AF
:103F200000942346079A1C491C48FFF773FF1C4B5B
:103F3000186040B100F096FB012806D0B0F1FF3FB9
:103F40001FD008B010BD0020F6E74FF0500372B646
:103F500083F31188BFF36F8FBFF34F8F62B6114B9E
:103F60001B685833104A1360104B4FF0FF321A6031
:103F70000F4B01221A600F4B00221A6001F046F825
:103F8000DFE74FF0500372B683F31188BFF36F8FF2
:103F9000BFF34F8F62B6FEE70C010108693D0008D0
:103FA000483900209C3400206C0000204C3900204F
:103FB0006839002094390020024A136801331360E5
:103FC000704700BF14390020014B1868704700BFCC
:103FD00094390020F8B53B4B1B68002B66D13A4B57
:103FE0001D6801351D60D5B9384B1B681B6853B17E
:103FF0004FF0500372B683F31188BFF36F8FBFF396
:104000004F8F62B6FEE7314A1168314B1868106075
:104010001960304A136801331360FFF73BFD2E4BE4
:104020001B68AB4238D900272C4B1B68DB6A03EBBB
:1040300083039A002A4B9B58012B3CD901273AE075
:104040000127224B1B681B6843B3204B1B68DB68AE
:10405000DC6863689D4226D3261D3046FFF788F949
:10406000A36A1BB104F11800FFF782F9E36A1D4A45
:104070001268934201D91B4A136003EB83039A0031
:10408000314617481044FFF74FF9E26A134B1B689B
:10409000DB6A9A42D4D2D4E70027D2E70E4B4FF026
:1040A000FF321A60C0E70C4A1360BDE70E4A13687E
:1040B0000133136000270D4B1B6803B101273846FD
:1040C000F8BD00BF1439002094390020A03400202E
:1040D000A4340020503900204C3900209C340020AA
:1040E000A83400201C390020103900209839002005
:1040F00038B5364B1B6853B94FF0500372B683F393
:104100001188BFF36F8FBFF34F8F62B6FEE700F0E9
:10411000E1FE2E4B1A68013A1A601B68002B4FD142
:104120002B4B1B680BB900244BE00024294B1B6868
:104130001BB3284BDB68DC6804F11800FFF718F9A3
:10414000251D2846FFF714F9E06A234B1B689842A7
:1041500001D9214B186000EB800029461F4B03EB6F
:104160008000FFF7E1F8E26A1D4B1B68DB6A9A42A8
:10417000DCD31C4B01221A60D8E70CB1FFF78AFC94
:10418000194B1C6884B9174B1C68D4B14FF0E0235D
:104190004FF08052C3F8042DBFF34F8FBFF36F8FE2
:1041A00001240EE0013C07D0FFF714FF0028F9D0EE
:1041B0000C4B01221A60F5E70B4B00221A60E2E774
:1041C000002400F0ADFE204638BD00BF14390020A9
:1041D00008390020543900201C390020A834002060
:1041E0009C340020983900201039002010B5B8B157
:1041F0000446114B1B6853B14FF0500372B683F362
:104200001188BFF36F8FBFF34F8F62B6FEE7FFF7E2
:10421000D3FE00212046FFF7BBFDFFF769FF48B939
:104220004FF0E0234FF08052C3F8042DBFF34F8FBF
:10423000BFF36F8F10BD00BF14390020224B1B68E5
:104240001BB1224B01221A607047204B00221A60DA
:104250001F4B1B6803EB83018A001E498A586AB909
:104260000BB1013BF6E74FF0500372B683F31188B0
:10427000BFF36F8FBFF34F8F62B6FEE703EB830090
:1042800082000A4450684068506003EB830C4FEA98
:104290008C020832114488420FD003EB8302910054
:1042A0000C4A0A445268D1680B4A116008490B60F5
:1042B00013685833094A136070474068624691009A
:1042C000044A0A445060E8E7143900209839002075
:1042D0001C390020A83400209C3400206C000020F1
:1042E00058B110B50C460A4A11681831FFF727F883
:1042F00001212046FFF74CFD10BD4FF0500372B670
:1043000083F31188BFF36F8FBFF34F8F62B6FEE761
:104310009C34002038B570B10D4614460B4A116824
:104320001831FFF701F80CB14FF0FF352146284650
:10433000FFF72EFD38BD4FF0500372B683F311889E
:10434000BFF36F8FBFF34F8F62B6FEE79C34002040
:1043500038B5C368DC6824B304F118052846FFF7B4
:1043600007F8194B1B683BBB251D2846FFF700F8D3
:10437000E06A164B1B68984201D9144B186000EB99
:1043800080002946124B03EB8000FEF7CDFFE26A66
:10439000104B1B68DB6A9A4213D901200E4B186040
:1043A00038BD4FF0500372B683F31188BFF36F8F9F
:1043B000BFF34F8F62B6FEE729460848FEF7B4FF09
:1043C000E5E70020ECE700BF143900201C3900208D
:1043D000A83400209C340020983900205439002053
:1043E00060B110B5044600F075FD0A4B1B682360F0
:1043F000094B1B68636000F093FD10BD4FF0500344
:1044000072B683F31188BFF36F8FBFF34F8F62B61D
:10441000FEE700BF5039002094390020034B1B6891
:104420000360034B1B684360704700BF5039002096
:1044300094390020F8B5C8B10C46054609B300F020
:1044400049FD1D4B19686B68C81A2268B2F1FF3F1D
:104450002AD01A4E36682F68B74201D08B4228D92D
:10446000824219D80023236001241EE04FF050033C
:1044700072B683F31188BFF36F8FBFF34F8F62B6AD
:10448000FEE74FF0500372B683F31188BFF36F8FCE
:10449000BFF34F8F62B6FEE75B1A134423602846D2
:1044A000FFF7BCFF002400E0002400F039FD2046A7
:1044B000F8BD0124F9E700BF9439002050390020ED
:1044C000014B01221A60704798390020054B1B6888
:1044D00033B1054B1B680BB10020704702207047B9
:1044E00001207047683900201439002000283FD08F
:1044F00038B50446204B1B6883420AD04FF0500366
:1045000072B683F31188BFF36F8FBFF34F8F62B61C
:10451000FEE7036D53B94FF0500372B683F3118871
:10452000BFF36F8FBFF34F8F62B6FEE7013B0365AA
:10453000C16AC26C91421DD00BB1002038BD051D6F
:104540002846FEF715FFE06CE062C0F13803A36176
:104550000A4B1B68984201D9084B186000EB800099
:104560002946074B03EB8000FEF7DEFE0120E5E75E
:10457000002070470020E1E79C3400201C39002017
:10458000A8340020064B1A6813682BB90123036076
:1045900023B9D368186870470023F8E700207047F4
:1045A0009C39002008B54160006191420CD8D21AB4
:1045B00083699A4201D3012008BD011D0B4B186885
:1045C000FEF7BDFE0020F7E79A422CBF0022012231
:1045D000994238BF00220AB10120EDE7011D044BCA
:1045E0001868FEF7ACFE0020E6E700BFA039002007
:1045F0009C39002030B583B000F06CFC114B1B6877
:104600001BB100F08DFC03B030BD0F4D2846FEF706
:104610007DFE0E4C2046FEF779FE0D4B1D600D4BC6
:104620001C60002300930C4B0C4A10210A20FEF75B
:10463000A7FF044B18600028E3D00949FFF7ECF905
:10464000DFE700BFC03A0020443A0020583A00207B
:104650009C390020A0390020703A0020A4390020A5
:104660001401010810B588B0FFF7C4FF134B1B6895
:10467000CBB100240594069407AA06A905A800F06A
:1046800095FA059B0293069B019302230093234610
:10469000079A0B490B48FFF7BDFB0B4B186010B195
:1046A000012008B010BD4FF0500372B683F311889B
:1046B000BFF36F8FBFF34F8F62B6FEE7C03A0020A3
:1046C0001C010108E5490008C43A0020B8B19C4625
:1046D00003461948006868B300B585B0009101929F
:1046E000029305291EDCFFF7F1FE022812D00023F9
:1046F0001A46694610480068FEF79FFF17E04FF022
:10470000500372B683F31188BFF36F8FBFF34F8FDF
:1047100062B6FEE70023069A694607480068FEF77E
:104720008CFF04E0002362466946FFF752F805B0AB
:104730005DF804FB00207047C03A002070B582B0DD
:104740001C4B1B681A6872B3DB681E68DC68251D89
:104750002846FEF70DFE236A2046984794F8283035
:1047600013F0040FECD0A36933449E4207D2636078
:10477000246129460F4B1868FEF7E1FDE0E70021B0
:1047800000910B4632462046FFF7A0FF0028D7D104
:104790004FF0500372B683F31188BFF36F8FBFF3EE
:1047A0004F8F62B6FEE7044A106802490860136042
:1047B00002B070BD9C390020A039002038B50546F4
:1047C000FFF702FC0446074B1B68834205D8002311
:1047D0002B60044B1C60204638BDFFF7AFFF012360
:1047E0002B60F6E76C3A002070B582B006460D46A5
:1047F00018490968C968CC68201DFEF7B9FD94F80E
:1048000028C01CF0040F08D12CF0010C84F828C03B
:10481000236A2046984702B070BDA16933462A46F4
:1048200031442046FFF7BEFE0028F1D00021009160
:104830000B4632462046FFF749FF0028E8D14FF0EB
:10484000500372B683F31188BFF36F8FBFF34F8F9E
:1048500062B6FEE79C39002070B582B006460C4671
:10486000FFF7AAFB01A8FFF7A9FF019B3BBB054689
:10487000B04228BF002C19D024B1134A1268126824
:10488000DAB901242246711B104B1868FFF7D8F8DB
:10489000FFF72EFCA8B94FF0E0234FF08052C3F889
:1048A000042DBFF34F8FBFF36F8F0AE0FFF720FC9B
:1048B00029463046FFF798FF03E01C46E2E7FFF782
:1048C00017FC02B070BD00BFA0390020C03A002024
:1048D00010B588B002E0049B002B0FDA002204A977
:1048E0003F4B1868FEF7E3FF002877D0049B002BAE
:1048F000F1DA07990698059B9847ECE7069C6369EF
:1049000013B1201DFEF734FD03A8FFF757FF049BEA
:10491000092BE3D8DFE803F0050505323954050516
:10492000323994F8283043F0010384F82830059B8D
:10493000A169024619442046FFF734FE0028CDD075
:10494000236A2046984794F8283013F0040FC5D006
:10495000A269002100910B46059802442046FFF70A
:10496000B5FE0028BAD14FF0500372B683F3118818
:10497000BFF36F8FBFF34F8F62B6FEE794F8283016
:1049800023F0010384F82830A8E794F8283043F096
:10499000010384F828300599A16131B1034602462C
:1049A00001442046FFF7FEFD98E74FF0500372B632
:1049B00083F31188BFF36F8FBFF34F8F62B6FEE7AB
:1049C00094F8283013F0020F04D023F0010384F888
:1049D000283083E7204600F0D5F97FE708B010BD06
:1049E000C03A002000B583B001A8FFF7CBFD0199C4
:1049F000FFF732FFFFF76CFFF6E70000EFF30583E8
:104A00007BB9EFF3108313B9EFF311831BB1094B9B
:104A10001B68022B08D0074B186840B901221A60A6
:104A200070476FF0050070476FF0050070474FF05A
:104A3000FF307047483E002008B5EFF30583A3B967
:104A4000EFF3108313B9EFF311831BB10B4B1B680A
:104A5000022B0DD0094B1B68012B0CD1074B0222F6
:104A60001A60FFF74FFA002008BD6FF00500FBE762
:104A70006FF00500F8E74FF0FF30F5E7483E002003
:104A8000F0B587B000240594EFF30584002C39D1EC
:104A9000EFF3108313B9EFF311831BB12D4B1B6898
:104AA000022B2FD070B32AB31568936903B918236A
:104AB0005C1E372C4AD8546814F0010F48D156694F
:104AC00076B14FEA960C946834B1D768B7F5C07FD9
:104AD00002D3176907B1C6B92CB14FF0FF340EE00D
:104AE0004FF0800CEFE7D4688CB9146994B14FF0A3
:104AF000FF3404E01546002418234FF0800C012CED
:104B00000AD0ACB1059807B0F0BD0124F7E74FF02B
:104B1000FF34F4E70024F2E71469926802920194EA
:104B200000930B4662462946FFF774F90590E9E7C2
:104B300005AA019200930B461FFA8CF22946FFF753
:104B4000ACF90128DED000230593DBE70020DAE78B
:104B50000020D8E7483E002008B5EFF3058383B96D
:104B6000EFF3108313B9EFF311831BB1084B1B68EC
:104B7000022B09D008B9002008BDFFF737FB002041
:104B8000FAE76FF00500F7E76FF00500F4E700BF04
:104B9000483E0020034B0360034B0B6080231360EF
:104BA000704700BFC83C0020C83A0020034B036098
:104BB000034B0B604FF4807313607047504200202A
:104BC0004C3E0020124A12F0070F1ED0D11D21F0DA
:104BD0000701C1F5705313440A460E4802600021D4
:104BE00041601344083B23F007030B4803605960FE
:104BF0001960991A51601360084B1960084B1960CD
:104C0000084B4FF000421A6070474FF47053E4E7CE
:104C1000D4430020E07F0020D0430020DC7F002030
:104C2000D87F0020D47F0020164B1A461B68834291
:104C3000FBD3516802EB010C844509D0416800EBBD
:104C4000010C634509D00360904219D01060704791
:104C50004068014451601046F0E710B40A4C2468E3
:104C6000A3420BD05B681944416013681B68036062
:104C7000904200D010605DF8044B70470460F7E785
:104C8000704700BFE07F0020D043002070B505468C
:104C9000FFF792F9364B1B68A3B1364B1B681D42D8
:104CA0004CD135B1083515F0070F02D025F00705B6
:104CB0000835002D44D0304B1B68AB4251D32F4AEE
:104CC000146804E0FFF77EFFE7E722461C466368AE
:104CD000AB4202D22368002BF7D1254B1B68A342BD
:104CE00041D0166808362368136063685B1B102B7D
:104CF00012D9601910F0070F0AD04FF0500372B6A6
:104D000083F31188BFF36F8FBFF34F8F62B6FEE757
:104D100043606560FFF788FF626817490B689B1A5C
:104D20000B60174909688B4201D215490B60114B82
:104D30001B68134363600023236002E0002600E049
:104D40000026FFF7D5F916F0070F0ED04FF05003ED
:104D500072B683F31188BFF36F8FBFF34F8F62B6C4
:104D6000FEE70026EDE70026EBE7304670BD00BF0A
:104D7000D0430020D47F0020D87F0020E07F002097
:104D8000DC7F0020002834D038B50446A0F10805A7
:104D900050F8043C174A126813420AD14FF05003EE
:104DA00072B683F31188BFF36F8FBFF34F8F62B674
:104DB000FEE750F8081C51B14FF0500372B683F370
:104DC0001188BFF36F8FBFF34F8F62B6FEE723EA00
:104DD000020340F8043CFFF7EFF854F8041C064ABD
:104DE00013680B4413602846FFF71EFFFFF780F996
:104DF00038BD7047D47F0020D87F002082B00023C8
:104E000001930F4B1B68B3F1FF3F0AD04FF05003E3
:104E100072B683F31188BFF36F8FBFF34F8F62B603
:104E2000FEE74FF0500372B683F31188BFF36F8F24
:104E3000BFF34F8F62B6019B002BFCD002B07047CE
:104E40001000002008480068006880F308884FF0D0
:104E5000000080F3148862B661B6BFF34F8FBFF3D2
:104E60006F8F00DF00BF000008ED00E0DFF80C00EE
:104E7000016841F4700101607047000088ED00E0B6
:104E80004FF0807340F8043C21F0010140F8081C09
:104E9000054B40F80C3C40F8202C6FF0020340F822
:104EA000243C4438704700BFFD4D0008000000005E
:104EB000074B19680868B0E8F04F80F30988BFF322
:104EC0006F8F4FF0000080F311887047AFF30080C0
:104ED0009C3400204FF0500372B683F31188BFF367
:104EE0006F8FBFF34F8F62B60C4A136801331360A4
:104EF000012B00D070474FF0E023D3F8043D13F0AE
:104F0000FF0FF7D04FF0500372B683F31188BFF351
:104F10006F8FBFF34F8F62B6FEE700BF1000002017
:104F20000A4B1B6853B94FF0500372B683F31188D4
:104F3000BFF36F8FBFF34F8F62B6FEE7013B034AAB
:104F400013600BB983F31188704700BF1000002075
:104F5000EFF30980BFF36F8F154B1A681EF0100F27
:104F600008BF20ED108A20E9F04F10602DE90900FC
:104F70004FF0500072B680F31188BFF34F8FBFF32C
:104F80006F8F62B6FFF75AF94FF0000080F3118877
:104F900009BC19680868B0E8F04F1EF0100F08BF90
:104FA000B0EC108A80F30988BFF36F8F704700BFA1
:104FB0009C34002008B54FF0500372B683F311887B
:104FC000BFF36F8FBFF34F8F62B6FFF703F828B1BF
:104FD0004FF0E0234FF08052C3F8042D002383F3F9
:104FE000118808BD4FF0E022002313619361054B47
:104FF0001B680549A1FB03139B09013B5361072370
:10500000136170470C000020D34D621030B583B09F
:105010002F4B1A78D2B20192FF221A701B78DBB2A2
:105020008DF803309DF8033003F05003294A1370C4
:10503000294B07221A6009E0274A1368013B1360D5
:105040009DF803305B00DBB28DF803309DF8033030
:1050500013F0800FF0D1204B1B68032B0AD04FF0C8
:10506000500372B683F31188BFF36F8FBFF34F8F76
:1050700062B6FEE71B02184A136003F4E063136094
:10508000019BDBB2124A13704FF0E024D4F8203DAC
:1050900043F47003C4F8203DD4F8203D43F070433E
:1050A000C4F8203DFFF79EFF00250C4B1D60FFF765
:1050B000DDFED4F8343F43F04043C4F8343FFFF7FB
:1050C000C1FEFFF7BBF8FFF799FE284603B030BDDD
:1050D00000E400E0E87F0020EC7F002010000020CA
:1050E000EFF305830F2B11D9134A9B5CDBB2134AF4
:1050F00012789A420AD94FF0500372B683F311889E
:10510000BFF36F8FBFF34F8F62B6FEE74FF0E02320
:10511000D3F80C3D03F4E063094A126893420AD9BC
:105120004FF0500372B683F31188BFF36F8FBFF354
:105130004F8F62B6FEE77047F0E300E0E87F0020A3
:10514000EC7F0020124A12F0070F1ED0D11D21F073
:105150000701C1F5705313440A460E48026000214E
:1051600041601344083B23F007030B480360596078
:105170001960991A51601360084B1960084B196047
:10518000084B4FF000421A6070474FF47053E4E749
:10519000F47F002000BC0020F07F0020FCBB00203A
:1051A000F8BB0020F4BB0020164B1A461B68834254
:1051B000FBD3516802EB010C844509D0416800EB38
:1051C000010C634509D00360904219D0106070470C
:1051D0004068014451601046F0E710B40A4C24685E
:1051E000A3420BD05B681944416013681B680360DD
:1051F000904200D010605DF8044B70470460F7E700
:10520000704700BF00BC0020F07F002070B505464D
:10521000FEF7D2FE364B1B68A3B1364B1B681D420E
:105220004CD135B1083515F0070F02D025F0070530
:105230000835002D44D0304B1B68AB4251D32F4A68
:10524000146804E0FFF77EFFE7E722461C46636828
:10525000AB4202D22368002BF7D1254B1B68A34237
:1052600041D0166808362368136063685B1B102BF7
:1052700012D9601910F0070F0AD04FF0500372B620
:1052800083F31188BFF36F8FBFF34F8F62B6FEE7D2
:1052900043606560FFF788FF626817490B689B1AD7
:1052A0000B60174909688B4201D215490B60114BFD
:1052B0001B68134363600023236002E0002600E0C4
:1052C0000026FEF715FF16F0070F0ED04FF0500323
:1052D00072B683F31188BFF36F8FBFF34F8F62B63F
:1052E000FEE70026EDE70026EBE7304670BD00BF85
:1052F000F07F0020F4BB0020F8BB002000BC0020A1
:10530000FCBB0020002834D038B50446A0F10805C5
:1053100050F8043C174A126813420AD14FF0500368
:1053200072B683F31188BFF36F8FBFF34F8F62B6EE
:10533000FEE750F8081C51B14FF0500372B683F3EA
:105340001188BFF36F8FBFF34F8F62B6FEE723EA7A
:10535000020340F8043CFEF72FFE54F8041C064AF2
:1053600013680B4413602846FFF71EFFFEF7C0FECC
:1053700038BD7047F4BB0020F8BB002050F8043C57
:10538000024A106823EA0000704700BFF4BB002007
:1053900070B504460D46FEF70FFE2846FFF736FFB0
:1053A0000646002818BF002C0ED02046FFF7E6FF67
:1053B0000838854200D305462A462146304600F08B
:1053C00050FB2046FFF79EFFFEF792FE304670BD71
:1053D00038B505460C46FEF7EFFD05FB04F4204604
:1053E000FFF714FF0546034603E0002103F8011B05
:1053F0001446621E002CF8D1FEF77AFE284638BD0E
:1054000008B505490A6802440A6004490A6802446A
:105410000A60FFF7FBFE08BD08BC00200CBC0020A2
:1054200058B110B50446FFF7A9FF044A13681B1AC8
:1054300013602046FFF766FF10BD70470CBC0020CC
:1054400038B50C460C4A13680B4413600B4A1368BA
:105450000B44136058B10546FFF790FF074A1368E5
:105460001B1A136021462846FFF792FF38BD0846F5
:10547000FFF7CCFEFAE700BF08BC00200CBC002000
:1054800010B501FB00F3054C22681A442260044C5D
:1054900022681A442260FFF79BFF10BD08BC002061
:1054A0000CBC0020000000002DE9F04107460E462C
:1054B000144615A3D3E90023FAF712FF0D468046E0
:1054C0002060616010A3D3E9002338463146FAF723
:1054D00007FFA260002A01DBBDE8F081084981FBDB
:1054E0000231D317C3EB21730133B8EB030165EB32
:1054F000E37521606560034901FB0322A260EBE7CD
:10550000A12FB84400CA9A3B00CA9A3B0000000091
:1055100070B582B00D460024009401946846FEF7F1
:105520005FFF009E019A4FEA461C4CEAD26C530181
:105530009B1A6CEB060C4FEA4C2C4CEAD35C5B02DA
:105540009B1846EB0C0C4FEA8C1141EA93619801D1
:10555000C01A61EB0C0180182A4646EB0101FFF7E7
:10556000A3FF204602B070BD08B54FF400620349A6
:10557000D0F88C02FDF7A0FE012008BD10BC002071
:1055800008B5D0F88C02FDF7D7F8012008BD70B53A
:10559000D0F88C52EB6F202B01D0002070BD144648
:1055A00092B22846FDF77EF8064636B9EB6F202BFF
:1055B00003D00120FFF7D0FAF7E70EB92046EDE758
:1055C0000020EBE72DE9F8430D4614461F46D0F8BE
:1055D0008C82002672B6D8F874301B685868C0F503
:1055E0000060DFF85490C9F8000062B6013601206F
:1055F000FFF7B2FA0E4B1B68D9F80020934214D182
:10560000BE42E7DB002008E00A49C95C29540133A7
:10561000C3F30A0306490B600130054B1B689A422D
:1056200001D0A042F0D3BDE8F8830020F5E700BF29
:1056300010C4002010BC002014C40020DFF834D0B7
:105640000D480E490E4A002302E0D458C4500433DA
:10565000C4188C42F9D30B4A0B4C002301E01360B1
:105660000432A242FBD3FDF747FE00F0D3F9FBF76B
:1056700079F8704700000820000000203402002064
:105680004C0D0108380200206C100120FEE70000DC
:10569000002310B50446C0E90033C0E90433836039
:1056A00081814366C2818361194608225C3000F023
:1056B00006F90D4B63620D4BA3620D4BE3620D4B7C
:1056C00023630D4B24629C4206D003F1680294428E
:1056D00002D0D0339C4205D104F15800BDE81040FF
:1056E00000F0BCB910BD00BF395800085B58000875
:1056F00093580008B758000818C40020024A03490C
:10570000034800F069B800BF1400002025630008BA
:105710002000002041680C4B994210B5044601D08E
:1057200000F000FEA168094B994202D0204600F02B
:10573000F9FDE168064B994204D02046BDE81040CF
:1057400000F0F0BD10BD00BF18C4002080C40020D0
:10575000E8C4002010B50B4B0B4C0C4A1A602046D5
:1057600000220421FFF794FF04F1680001220921BF
:10577000FFF78EFF04F1D0000222BDE81040122195
:10578000FFF786BF50C5002018C40020FD56000852
:10579000014800F064B900BF5AC50020014800F07C
:1057A0005FB900BF5AC5002010B50446FFF7F0FFEF
:1057B000236A1BB1BDE81040FFF7F0BF044B236222
:1057C000044B1B68002BF5D1FFF7C4FFF2E700BFC5
:1057D0001557000850C500202DE9F84307468846B4
:1057E00014460026D4E90195B9F1010905D52468CC
:1057F000002CF7D13046BDE8F883AB89012B07D9DF
:10580000B5F90E30013303D029463846C047064368
:105810006835E9E70FB407B5064904AB086853F8E3
:10582000042B8168019300F04DFA03B05DF804EB9E
:1058300004B070476C00002010B50C46B1F90E1092
:1058400000F0BEF80028ABBF636DA3891B1823F4DA
:105850008053ACBF6365A38110BD2DE9F0411F46A5
:105860008B89DB0505460C46164605D5B1F90E10A9
:105870000223002200F092F8A389B4F90E1023F459
:105880008053A38132463B462846BDE8F04100F0F4
:10589000A9B810B50C46B1F90E1000F07FF8431C02
:1058A000A38915BF606523F4805343F48053A3811B
:1058B00018BFA38110BDB1F90E1000F009B8024461
:1058C0000346934200D1704703F8011BF9E700003B
:1058D00038B5064D0023044608462B60FBF7C8F98F
:1058E000431C02D12B6803B1236038BD54C500208E
:1058F000294B1B68834270B504464BD0C36943B142
:10590000DB68002B44D1E369196811B1204600F02F
:10591000B7F8616911B1204600F0B2F8E16911B140
:10592000204600F0ADF8216B11B1204600F0A8F838
:10593000616B11B1204600F0A3F8A16B11B12046B4
:1059400000F09EF8A16C11B1204600F099F8616C4E
:1059500011B1204600F094F8E16A11B1204600F040
:105960008FF8236AB3B12046BDE870401847495903
:1059700041B90435E369802DD968F8D1204600F09B
:105980007FF8C0E70E68204600F07AF83146EFE76E
:105990000025EFE770BD00BF6C00002038B5074D53
:1059A00004460846114600222A601A46FBF76AF9A7
:1059B000431C02D12B6803B1236038BD54C50020BD
:1059C00038B5074D04460846114600222A601A469B
:1059D000FBF70AF9431C02D12B6803B1236038BDE1
:1059E00054C5002038B5074D04460846114600222C
:1059F0002A601A46FBF708F9431C02D12B6803B151
:105A0000236038BD54C50020014B1868704700BFA3
:105A10006C00002070B50D4D0D4C641BA4100026C9
:105A2000A64209D10B4D0C4C0AF014FB641BA410C8
:105A30000026A64205D170BD55F8043B98470136B3
:105A4000EEE755F8043B98470136F2E7400D0108B0
:105A5000400D0108400D0108480D010870477047CE
:105A600070470A44914200F1FF3300D1704710B5EE
:105A700011F8014B03F8014F9142F9D110BD00001C
:105A800037B5002944D051F8043C0190002BA1F116
:105A90000404B8BFE41800F0DFF81E4A0198136848
:105AA00033B96360146003B0BDE8304000F0DAB889
:105AB000A34208D9256861198B4201BF19685B6848
:105AC00049192160EDE71A465B680BB1A342FAD988
:105AD00011685518A5420BD1246821445418A342DB
